# Sample New Order Single Message
8=FIX.4.4|9=122|35=D|34=215|49=CLIENT12|52=20100225-19:41:57.316|56=B|1=Marcel|11=13346|21=1|40=2|44=5|54=1|59=0|60=20100225-19:39:52.020|10=072|

# Sample Sxecution Report Message
8=FIX.4.4|9=229|35=8|34=2835|49=UBE|52=20120329-12:48:45|56=ORD|6=0|11=1333025321|14=0|15=USD|17=E3291248457680|32=0|37=F025051503083|38=1000000|39=0|40=D|44=82.266|54=1|55=USD/JPY|59=3|150=0|151=1000000|461=RXXX|10=008